{
  "_format": "hh-sol-artifact-1",
  "contractName": "HealthDataContract",
  "sourceName": "contracts/HealthDataContract.sol",
  "abi": [
    {
      "anonymous": false,
      "inputs": [
        {
          "indexed": true,
          "internalType": "uint256",
          "name": "consentId",
          "type": "uint256"
        },
        {
          "indexed": true,
          "internalType": "address",
          "name": "patientAddress",
          "type": "address"
        },
        {
          "indexed": true,
          "internalType": "address",
          "name": "providerAddress",
          "type": "address"
        },
        {
          "indexed": false,
          "internalType": "uint256",
          "name": "recordId",
          "type": "uint256"
        },
        {
          "indexed": false,
          "internalType": "uint256",
          "name": "expiryDate",
          "type": "uint256"
        }
      ],
      "name": "ConsentGranted",
      "type": "event"
    },
    {
      "anonymous": false,
      "inputs": [
        {
          "indexed": true,
          "internalType": "uint256",
          "name": "consentId",
          "type": "uint256"
        }
      ],
      "name": "ConsentRevoked",
      "type": "event"
    },
    {
      "anonymous": false,
      "inputs": [
        {
          "indexed": true,
          "internalType": "uint256",
          "name": "recordId",
          "type": "uint256"
        },
        {
          "indexed": true,
          "internalType": "address",
          "name": "patientAddress",
          "type": "address"
        },
        {
          "indexed": false,
          "internalType": "string",
          "name": "title",
          "type": "string"
        },
        {
          "indexed": false,
          "internalType": "string",
          "name": "dataHash",
          "type": "string"
        }
      ],
      "name": "RecordUploaded",
      "type": "event"
    },
    {
      "anonymous": false,
      "inputs": [
        {
          "indexed": true,
          "internalType": "uint256",
          "name": "recordId",
          "type": "uint256"
        },
        {
          "indexed": true,
          "internalType": "address",
          "name": "patientAddress",
          "type": "address"
        },
        {
          "indexed": true,
          "internalType": "address",
          "name": "providerAddress",
          "type": "address"
        },
        {
          "indexed": false,
          "internalType": "string",
          "name": "wrappedKeyIpfsHash",
          "type": "string"
        }
      ],
      "name": "WrappedKeyShared",
      "type": "event"
    },
    {
      "inputs": [
        {
          "internalType": "address",
          "name": "patientAddress",
          "type": "address"
        },
        {
          "internalType": "address",
          "name": "providerAddress",
          "type": "address"
        },
        {
          "internalType": "uint256",
          "name": "recordId",
          "type": "uint256"
        }
      ],
      "name": "checkRecordSpecificAccess",
      "outputs": [
        {
          "internalType": "bool",
          "name": "",
          "type": "bool"
        }
      ],
      "stateMutability": "view",
      "type": "function"
    },
    {
      "inputs": [
        {
          "internalType": "uint256",
          "name": "",
          "type": "uint256"
        }
      ],
      "name": "consents",
      "outputs": [
        {
          "internalType": "uint256",
          "name": "id",
          "type": "uint256"
        },
        {
          "internalType": "address",
          "name": "patientAddress",
          "type": "address"
        },
        {
          "internalType": "address",
          "name": "providerAddress",
          "type": "address"
        },
        {
          "internalType": "uint256",
          "name": "recordId",
          "type": "uint256"
        },
        {
          "internalType": "string",
          "name": "purpose",
          "type": "string"
        },
        {
          "internalType": "uint256",
          "name": "expiryDate",
          "type": "uint256"
        },
        {
          "internalType": "bool",
          "name": "isActive",
          "type": "bool"
        }
      ],
      "stateMutability": "view",
      "type": "function"
    },
    {
      "inputs": [
        {
          "internalType": "uint256",
          "name": "consentId",
          "type": "uint256"
        }
      ],
      "name": "getConsentById",
      "outputs": [
        {
          "components": [
            {
              "internalType": "uint256",
              "name": "id",
              "type": "uint256"
            },
            {
              "internalType": "address",
              "name": "patientAddress",
              "type": "address"
            },
            {
              "internalType": "address",
              "name": "providerAddress",
              "type": "address"
            },
            {
              "internalType": "uint256",
              "name": "recordId",
              "type": "uint256"
            },
            {
              "internalType": "string",
              "name": "purpose",
              "type": "string"
            },
            {
              "internalType": "uint256",
              "name": "expiryDate",
              "type": "uint256"
            },
            {
              "internalType": "bool",
              "name": "isActive",
              "type": "bool"
            }
          ],
          "internalType": "struct HealthDataContract.ConsentRecord",
          "name": "",
          "type": "tuple"
        }
      ],
      "stateMutability": "view",
      "type": "function"
    },
    {
      "inputs": [
        {
          "internalType": "address",
          "name": "patientAddress",
          "type": "address"
        },
        {
          "internalType": "address",
          "name": "providerAddress",
          "type": "address"
        }
      ],
      "name": "getConsentsForProviderByPatient",
      "outputs": [
        {
          "components": [
            {
              "internalType": "uint256",
              "name": "id",
              "type": "uint256"
            },
            {
              "internalType": "address",
              "name": "patientAddress",
              "type": "address"
            },
            {
              "internalType": "address",
              "name": "providerAddress",
              "type": "address"
            },
            {
              "internalType": "uint256",
              "name": "recordId",
              "type": "uint256"
            },
            {
              "internalType": "string",
              "name": "purpose",
              "type": "string"
            },
            {
              "internalType": "uint256",
              "name": "expiryDate",
              "type": "uint256"
            },
            {
              "internalType": "bool",
              "name": "isActive",
              "type": "bool"
            }
          ],
          "internalType": "struct HealthDataContract.ConsentRecord[]",
          "name": "",
          "type": "tuple[]"
        }
      ],
      "stateMutability": "view",
      "type": "function"
    },
    {
      "inputs": [
        {
          "internalType": "address",
          "name": "patientAddress",
          "type": "address"
        }
      ],
      "name": "getPatientConsents",
      "outputs": [
        {
          "components": [
            {
              "internalType": "uint256",
              "name": "id",
              "type": "uint256"
            },
            {
              "internalType": "address",
              "name": "patientAddress",
              "type": "address"
            },
            {
              "internalType": "address",
              "name": "providerAddress",
              "type": "address"
            },
            {
              "internalType": "uint256",
              "name": "recordId",
              "type": "uint256"
            },
            {
              "internalType": "string",
              "name": "purpose",
              "type": "string"
            },
            {
              "internalType": "uint256",
              "name": "expiryDate",
              "type": "uint256"
            },
            {
              "internalType": "bool",
              "name": "isActive",
              "type": "bool"
            }
          ],
          "internalType": "struct HealthDataContract.ConsentRecord[]",
          "name": "",
          "type": "tuple[]"
        }
      ],
      "stateMutability": "view",
      "type": "function"
    },
    {
      "inputs": [
        {
          "internalType": "address",
          "name": "patientAddress",
          "type": "address"
        }
      ],
      "name": "getPatientRecords",
      "outputs": [
        {
          "components": [
            {
              "internalType": "uint256",
              "name": "id",
              "type": "uint256"
            },
            {
              "internalType": "address",
              "name": "patientAddress",
              "type": "address"
            },
            {
              "internalType": "string",
              "name": "title",
              "type": "string"
            },
            {
              "internalType": "string",
              "name": "description",
              "type": "string"
            },
            {
              "internalType": "string",
              "name": "dataHash",
              "type": "string"
            },
            {
              "internalType": "uint256",
              "name": "dateCreated",
              "type": "uint256"
            }
          ],
          "internalType": "struct HealthDataContract.HealthRecord[]",
          "name": "",
          "type": "tuple[]"
        }
      ],
      "stateMutability": "view",
      "type": "function"
    },
    {
      "inputs": [
        {
          "internalType": "uint256",
          "name": "recordId",
          "type": "uint256"
        }
      ],
      "name": "getRecordById",
      "outputs": [
        {
          "components": [
            {
              "internalType": "uint256",
              "name": "id",
              "type": "uint256"
            },
            {
              "internalType": "address",
              "name": "patientAddress",
              "type": "address"
            },
            {
              "internalType": "string",
              "name": "title",
              "type": "string"
            },
            {
              "internalType": "string",
              "name": "description",
              "type": "string"
            },
            {
              "internalType": "string",
              "name": "dataHash",
              "type": "string"
            },
            {
              "internalType": "uint256",
              "name": "dateCreated",
              "type": "uint256"
            }
          ],
          "internalType": "struct HealthDataContract.HealthRecord",
          "name": "",
          "type": "tuple"
        }
      ],
      "stateMutability": "view",
      "type": "function"
    },
    {
      "inputs": [
        {
          "internalType": "uint256",
          "name": "recordId",
          "type": "uint256"
        },
        {
          "internalType": "address",
          "name": "providerAddress",
          "type": "address"
        }
      ],
      "name": "getWrappedKeyHash",
      "outputs": [
        {
          "internalType": "string",
          "name": "",
          "type": "string"
        }
      ],
      "stateMutability": "view",
      "type": "function"
    },
    {
      "inputs": [
        {
          "internalType": "address",
          "name": "providerAddress",
          "type": "address"
        },
        {
          "internalType": "uint256",
          "name": "recordId",
          "type": "uint256"
        },
        {
          "internalType": "string",
          "name": "purpose",
          "type": "string"
        },
        {
          "internalType": "uint256",
          "name": "expiryDateTimestamp",
          "type": "uint256"
        }
      ],
      "name": "grantConsent",
      "outputs": [
        {
          "internalType": "uint256",
          "name": "",
          "type": "uint256"
        }
      ],
      "stateMutability": "nonpayable",
      "type": "function"
    },
    {
      "inputs": [
        {
          "internalType": "uint256",
          "name": "",
          "type": "uint256"
        }
      ],
      "name": "healthRecords",
      "outputs": [
        {
          "internalType": "uint256",
          "name": "id",
          "type": "uint256"
        },
        {
          "internalType": "address",
          "name": "patientAddress",
          "type": "address"
        },
        {
          "internalType": "string",
          "name": "title",
          "type": "string"
        },
        {
          "internalType": "string",
          "name": "description",
          "type": "string"
        },
        {
          "internalType": "string",
          "name": "dataHash",
          "type": "string"
        },
        {
          "internalType": "uint256",
          "name": "dateCreated",
          "type": "uint256"
        }
      ],
      "stateMutability": "view",
      "type": "function"
    },
    {
      "inputs": [
        {
          "internalType": "uint256",
          "name": "consentId",
          "type": "uint256"
        }
      ],
      "name": "revokeConsent",
      "outputs": [],
      "stateMutability": "nonpayable",
      "type": "function"
    },
    {
      "inputs": [
        {
          "internalType": "uint256",
          "name": "recordId",
          "type": "uint256"
        },
        {
          "internalType": "address",
          "name": "providerAddress",
          "type": "address"
        },
        {
          "internalType": "string",
          "name": "wrappedKeyIpfsHash",
          "type": "string"
        }
      ],
      "name": "shareWrappedKeyHash",
      "outputs": [],
      "stateMutability": "nonpayable",
      "type": "function"
    },
    {
      "inputs": [
        {
          "internalType": "string",
          "name": "title",
          "type": "string"
        },
        {
          "internalType": "string",
          "name": "description",
          "type": "string"
        },
        {
          "internalType": "string",
          "name": "dataHash",
          "type": "string"
        }
      ],
      "name": "uploadRecord",
      "outputs": [
        {
          "internalType": "uint256",
          "name": "",
          "type": "uint256"
        }
      ],
      "stateMutability": "nonpayable",
      "type": "function"
    }
  ],
  "bytecode": "0x608060405234801561001057600080fd5b5061359b806100206000396000f3fe608060405234801561001057600080fd5b50600436106100cf5760003560e01c8063519eae0a1161008c578063b665c0d311610066578063b665c0d31461025c578063cdd5ba2f14610291578063d557d53a146102c1578063e75b8b23146102f7576100cf565b8063519eae0a146101cc57806365d88427146101fc5780637cd3baef1461022c576100cf565b806316a0042c146100d457806318bd4847146100f05780631cd0926014610120578063249243851461015057806331ad0eb7146101805780634c409aa0146101b0575b600080fd5b6100ee60048036038101906100e991906123f5565b610327565b005b61010a60048036038101906101059190612480565b610466565b60405161011791906126bd565b60405180910390f35b61013a60048036038101906101359190612814565b610871565b60405161014791906128ca565b60405180910390f35b61016a60048036038101906101659190612480565b6109f2565b6040516101779190612a5e565b60405180910390f35b61019a60048036038101906101959190612a80565b610d54565b6040516101a79190612a5e565b60405180910390f35b6101ca60048036038101906101c59190612ac0565b611191565b005b6101e660048036038101906101e191906123f5565b611415565b6040516101f39190612bcb565b60405180910390f35b61021660048036038101906102119190612bed565b611613565b6040516102239190612c4f565b60405180910390f35b61024660048036038101906102419190612c6a565b611799565b6040516102539190612cf4565b60405180910390f35b610276600480360381019061027191906123f5565b6118d8565b60405161028896959493929190612d25565b60405180910390f35b6102ab60048036038101906102a69190612d9b565b611acc565b6040516102b891906128ca565b60405180910390f35b6102db60048036038101906102d691906123f5565b611e6d565b6040516102ee9796959493929190612e1e565b60405180910390f35b610311600480360381019061030c91906123f5565b611f84565b60405161031e9190612f2b565b60405180910390f35b6000600260008381526020019081526020016000209050600081600001541415610386576040517f08c379a000000000000000000000000000000000000000000000000000000000815260040161037d90612f99565b60405180910390fd5b3373ffffffffffffffffffffffffffffffffffffffff168160010160009054906101000a900473ffffffffffffffffffffffffffffffffffffffff1673ffffffffffffffffffffffffffffffffffffffff1614610418576040517f08c379a000000000000000000000000000000000000000000000000000000000815260040161040f9061302b565b60405180910390fd5b60008160060160006101000a81548160ff021916908315150217905550817f17ba03014e2d53e5983887aaf82c0688082a4e7010d71f88e948319fbb6fbe8c60405160405180910390a25050565b6060600080600190505b61047a600161222d565b811161050c578373ffffffffffffffffffffffffffffffffffffffff166003600083815260200190815260200160002060010160009054906101000a900473ffffffffffffffffffffffffffffffffffffffff1673ffffffffffffffffffffffffffffffffffffffff1614156104f95781806104f59061307a565b9250505b80806105049061307a565b915050610470565b5060008167ffffffffffffffff811115610529576105286126e9565b5b60405190808252806020026020018201604052801561056257816020015b61054f612251565b8152602001906001900390816105475790505b509050600080600190505b610577600161222d565b8111610865578573ffffffffffffffffffffffffffffffffffffffff166003600083815260200190815260200160002060010160009054906101000a900473ffffffffffffffffffffffffffffffffffffffff1673ffffffffffffffffffffffffffffffffffffffff16141561085257600360008281526020019081526020016000206040518060c0016040529081600082015481526020016001820160009054906101000a900473ffffffffffffffffffffffffffffffffffffffff1673ffffffffffffffffffffffffffffffffffffffff1673ffffffffffffffffffffffffffffffffffffffff168152602001600282018054610675906130f2565b80601f01602080910402602001604051908101604052809291908181526020018280546106a1906130f2565b80156106ee5780601f106106c3576101008083540402835291602001916106ee565b820191906000526020600020905b8154815290600101906020018083116106d157829003601f168201915b50505050508152602001600382018054610707906130f2565b80601f0160208091040260200160405190810160405280929190818152602001828054610733906130f2565b80156107805780601f1061075557610100808354040283529160200191610780565b820191906000526020600020905b81548152906001019060200180831161076357829003601f168201915b50505050508152602001600482018054610799906130f2565b80601f01602080910402602001604051908101604052809291908181526020018280546107c5906130f2565b80156108125780601f106107e757610100808354040283529160200191610812565b820191906000526020600020905b8154815290600101906020018083116107f557829003601f168201915b5050505050815260200160058201548152505083838151811061083857610837613124565b5b6020026020010181905250818061084e9061307a565b9250505b808061085d9061307a565b91505061056d565b50819350505050919050565b600061087d600161223b565b6000610889600161222d565b90506040518060c001604052808281526020013373ffffffffffffffffffffffffffffffffffffffff16815260200186815260200185815260200184815260200142815250600360008381526020019081526020016000206000820151816000015560208201518160010160006101000a81548173ffffffffffffffffffffffffffffffffffffffff021916908373ffffffffffffffffffffffffffffffffffffffff160217905550604082015181600201908051906020019061094e92919061229d565b50606082015181600301908051906020019061096b92919061229d565b50608082015181600401908051906020019061098892919061229d565b5060a082015181600501559050503373ffffffffffffffffffffffffffffffffffffffff16817f14b39f162268702d9e9a6c8d7fa260ef7e403830ecd08ff0375ab71dfa79c84687866040516109df929190613153565b60405180910390a3809150509392505050565b6060600080600190505b610a06600061222d565b8111610a98578373ffffffffffffffffffffffffffffffffffffffff166002600083815260200190815260200160002060010160009054906101000a900473ffffffffffffffffffffffffffffffffffffffff1673ffffffffffffffffffffffffffffffffffffffff161415610a85578180610a819061307a565b9250505b8080610a909061307a565b9150506109fc565b5060008167ffffffffffffffff811115610ab557610ab46126e9565b5b604051908082528060200260200182016040528015610aee57816020015b610adb612323565b815260200190600190039081610ad35790505b509050600080600190505b610b03600061222d565b8111610d48578573ffffffffffffffffffffffffffffffffffffffff166002600083815260200190815260200160002060010160009054906101000a900473ffffffffffffffffffffffffffffffffffffffff1673ffffffffffffffffffffffffffffffffffffffff161415610d3557600260008281526020019081526020016000206040518060e0016040529081600082015481526020016001820160009054906101000a900473ffffffffffffffffffffffffffffffffffffffff1673ffffffffffffffffffffffffffffffffffffffff1673ffffffffffffffffffffffffffffffffffffffff1681526020016002820160009054906101000a900473ffffffffffffffffffffffffffffffffffffffff1673ffffffffffffffffffffffffffffffffffffffff1673ffffffffffffffffffffffffffffffffffffffff16815260200160038201548152602001600482018054610c61906130f2565b80601f0160208091040260200160405190810160405280929190818152602001828054610c8d906130f2565b8015610cda5780601f10610caf57610100808354040283529160200191610cda565b820191906000526020600020905b815481529060010190602001808311610cbd57829003601f168201915b50505050508152602001600582015481526020016006820160009054906101000a900460ff161515151581525050838381518110610d1b57610d1a613124565b5b60200260200101819052508180610d319061307a565b9250505b8080610d409061307a565b915050610af9565b50819350505050919050565b6060600080600190505b610d68600061222d565b8111610e67578473ffffffffffffffffffffffffffffffffffffffff166002600083815260200190815260200160002060010160009054906101000a900473ffffffffffffffffffffffffffffffffffffffff1673ffffffffffffffffffffffffffffffffffffffff16148015610e4057508373ffffffffffffffffffffffffffffffffffffffff166002600083815260200190815260200160002060020160009054906101000a900473ffffffffffffffffffffffffffffffffffffffff1673ffffffffffffffffffffffffffffffffffffffff16145b15610e54578180610e509061307a565b9250505b8080610e5f9061307a565b915050610d5e565b5060008167ffffffffffffffff811115610e8457610e836126e9565b5b604051908082528060200260200182016040528015610ebd57816020015b610eaa612323565b815260200190600190039081610ea25790505b509050600080600190505b610ed2600061222d565b8111611184578673ffffffffffffffffffffffffffffffffffffffff166002600083815260200190815260200160002060010160009054906101000a900473ffffffffffffffffffffffffffffffffffffffff1673ffffffffffffffffffffffffffffffffffffffff16148015610faa57508573ffffffffffffffffffffffffffffffffffffffff166002600083815260200190815260200160002060020160009054906101000a900473ffffffffffffffffffffffffffffffffffffffff1673ffffffffffffffffffffffffffffffffffffffff16145b1561117157600260008281526020019081526020016000206040518060e0016040529081600082015481526020016001820160009054906101000a900473ffffffffffffffffffffffffffffffffffffffff1673ffffffffffffffffffffffffffffffffffffffff1673ffffffffffffffffffffffffffffffffffffffff1681526020016002820160009054906101000a900473ffffffffffffffffffffffffffffffffffffffff1673ffffffffffffffffffffffffffffffffffffffff1673ffffffffffffffffffffffffffffffffffffffff1681526020016003820154815260200160048201805461109d906130f2565b80601f01602080910402602001604051908101604052809291908181526020018280546110c9906130f2565b80156111165780601f106110eb57610100808354040283529160200191611116565b820191906000526020600020905b8154815290600101906020018083116110f957829003601f168201915b50505050508152602001600582015481526020016006820160009054906101000a900460ff16151515158152505083838151811061115757611156613124565b5b6020026020010181905250818061116d9061307a565b9250505b808061117c9061307a565b915050610ec8565b5081935050505092915050565b826000600360008381526020019081526020016000206000015414156111ec576040517f08c379a00000000000000000000000000000000000000000000000000000000081526004016111e3906131d6565b60405180910390fd5b3373ffffffffffffffffffffffffffffffffffffffff166003600086815260200190815260200160002060010160009054906101000a900473ffffffffffffffffffffffffffffffffffffffff1673ffffffffffffffffffffffffffffffffffffffff1614611290576040517f08c379a000000000000000000000000000000000000000000000000000000000815260040161128790613268565b60405180910390fd5b600073ffffffffffffffffffffffffffffffffffffffff168373ffffffffffffffffffffffffffffffffffffffff161415611300576040517f08c379a00000000000000000000000000000000000000000000000000000000081526004016112f7906132fa565b60405180910390fd5b6000825111611344576040517f08c379a000000000000000000000000000000000000000000000000000000000815260040161133b90613366565b60405180910390fd5b816004600086815260200190815260200160002060008573ffffffffffffffffffffffffffffffffffffffff1673ffffffffffffffffffffffffffffffffffffffff16815260200190815260200160002090805190602001906113a892919061229d565b508273ffffffffffffffffffffffffffffffffffffffff163373ffffffffffffffffffffffffffffffffffffffff16857fce99a77ea2ecbcc6529396b00d81b2c031225ac9d3058b26b8e5344e76746a0a856040516114079190612cf4565b60405180910390a450505050565b61141d612323565b600060026000848152602001908152602001600020600001541415611477576040517f08c379a000000000000000000000000000000000000000000000000000000000815260040161146e90612f99565b60405180910390fd5b600260008381526020019081526020016000206040518060e0016040529081600082015481526020016001820160009054906101000a900473ffffffffffffffffffffffffffffffffffffffff1673ffffffffffffffffffffffffffffffffffffffff1673ffffffffffffffffffffffffffffffffffffffff1681526020016002820160009054906101000a900473ffffffffffffffffffffffffffffffffffffffff1673ffffffffffffffffffffffffffffffffffffffff1673ffffffffffffffffffffffffffffffffffffffff16815260200160038201548152602001600482018054611565906130f2565b80601f0160208091040260200160405190810160405280929190818152602001828054611591906130f2565b80156115de5780601f106115b3576101008083540402835291602001916115de565b820191906000526020600020905b8154815290600101906020018083116115c157829003601f168201915b50505050508152602001600582015481526020016006820160009054906101000a900460ff1615151515815250509050919050565b600080600190505b611625600061222d565b811161178c578473ffffffffffffffffffffffffffffffffffffffff166002600083815260200190815260200160002060010160009054906101000a900473ffffffffffffffffffffffffffffffffffffffff1673ffffffffffffffffffffffffffffffffffffffff161480156116fd57508373ffffffffffffffffffffffffffffffffffffffff166002600083815260200190815260200160002060020160009054906101000a900473ffffffffffffffffffffffffffffffffffffffff1673ffffffffffffffffffffffffffffffffffffffff16145b801561171e5750826002600083815260200190815260200160002060030154145b15611779576002600082815260200190815260200160002060060160009054906101000a900460ff168015611769575060026000828152602001908152602001600020600501544211155b15611778576001915050611792565b5b80806117849061307a565b91505061161b565b50600090505b9392505050565b6060826000600360008381526020019081526020016000206000015414156117f6576040517f08c379a00000000000000000000000000000000000000000000000000000000081526004016117ed906131d6565b60405180910390fd5b6004600085815260200190815260200160002060008473ffffffffffffffffffffffffffffffffffffffff1673ffffffffffffffffffffffffffffffffffffffff1681526020019081526020016000208054611851906130f2565b80601f016020809104026020016040519081016040528092919081815260200182805461187d906130f2565b80156118ca5780601f1061189f576101008083540402835291602001916118ca565b820191906000526020600020905b8154815290600101906020018083116118ad57829003601f168201915b505050505091505092915050565b60036020528060005260406000206000915090508060000154908060010160009054906101000a900473ffffffffffffffffffffffffffffffffffffffff1690806002018054611927906130f2565b80601f0160208091040260200160405190810160405280929190818152602001828054611953906130f2565b80156119a05780601f10611975576101008083540402835291602001916119a0565b820191906000526020600020905b81548152906001019060200180831161198357829003601f168201915b5050505050908060030180546119b5906130f2565b80601f01602080910402602001604051908101604052809291908181526020018280546119e1906130f2565b8015611a2e5780601f10611a0357610100808354040283529160200191611a2e565b820191906000526020600020905b815481529060010190602001808311611a1157829003601f168201915b505050505090806004018054611a43906130f2565b80601f0160208091040260200160405190810160405280929190818152602001828054611a6f906130f2565b8015611abc5780601f10611a9157610100808354040283529160200191611abc565b820191906000526020600020905b815481529060010190602001808311611a9f57829003601f168201915b5050505050908060050154905086565b600083600060036000838152602001908152602001600020600001541415611b29576040517f08c379a0000000000000000000000000000000000000000000000000000000008152600401611b20906131d6565b60405180910390fd5b600073ffffffffffffffffffffffffffffffffffffffff168673ffffffffffffffffffffffffffffffffffffffff161415611b99576040517f08c379a0000000000000000000000000000000000000000000000000000000008152600401611b90906133f8565b60405180910390fd5b428311611bdb576040517f08c379a0000000000000000000000000000000000000000000000000000000008152600401611bd29061348a565b60405180910390fd5b3373ffffffffffffffffffffffffffffffffffffffff166003600087815260200190815260200160002060010160009054906101000a900473ffffffffffffffffffffffffffffffffffffffff1673ffffffffffffffffffffffffffffffffffffffff1614611c7f576040517f08c379a0000000000000000000000000000000000000000000000000000000008152600401611c769061351c565b60405180910390fd5b611c89600061223b565b6000611c95600061222d565b90506040518060e001604052808281526020013373ffffffffffffffffffffffffffffffffffffffff1681526020018873ffffffffffffffffffffffffffffffffffffffff16815260200187815260200186815260200185815260200160011515815250600260008381526020019081526020016000206000820151816000015560208201518160010160006101000a81548173ffffffffffffffffffffffffffffffffffffffff021916908373ffffffffffffffffffffffffffffffffffffffff16021790555060408201518160020160006101000a81548173ffffffffffffffffffffffffffffffffffffffff021916908373ffffffffffffffffffffffffffffffffffffffff160217905550606082015181600301556080820151816004019080519060200190611dca92919061229d565b5060a0820151816005015560c08201518160060160006101000a81548160ff0219169083151502179055509050508673ffffffffffffffffffffffffffffffffffffffff163373ffffffffffffffffffffffffffffffffffffffff16827fea2b8e31e829effe3c9feedb9846f31d4ea2fbb7ee21cb45c24e875af06dbf7c8988604051611e5892919061353c565b60405180910390a48092505050949350505050565b60026020528060005260406000206000915090508060000154908060010160009054906101000a900473ffffffffffffffffffffffffffffffffffffffff16908060020160009054906101000a900473ffffffffffffffffffffffffffffffffffffffff1690806003015490806004018054611ee8906130f2565b80601f0160208091040260200160405190810160405280929190818152602001828054611f14906130f2565b8015611f615780601f10611f3657610100808354040283529160200191611f61565b820191906000526020600020905b815481529060010190602001808311611f4457829003601f168201915b5050505050908060050154908060060160009054906101000a900460ff16905087565b611f8c612251565b81600060036000838152602001908152602001600020600001541415611fe7576040517f08c379a0000000000000000000000000000000000000000000000000000000008152600401611fde906131d6565b60405180910390fd5b600360008481526020019081526020016000206040518060c0016040529081600082015481526020016001820160009054906101000a900473ffffffffffffffffffffffffffffffffffffffff1673ffffffffffffffffffffffffffffffffffffffff1673ffffffffffffffffffffffffffffffffffffffff168152602001600282018054612075906130f2565b80601f01602080910402602001604051908101604052809291908181526020018280546120a1906130f2565b80156120ee5780601f106120c3576101008083540402835291602001916120ee565b820191906000526020600020905b8154815290600101906020018083116120d157829003601f168201915b50505050508152602001600382018054612107906130f2565b80601f0160208091040260200160405190810160405280929190818152602001828054612133906130f2565b80156121805780601f1061215557610100808354040283529160200191612180565b820191906000526020600020905b81548152906001019060200180831161216357829003601f168201915b50505050508152602001600482018054612199906130f2565b80601f01602080910402602001604051908101604052809291908181526020018280546121c5906130f2565b80156122125780601f106121e757610100808354040283529160200191612212565b820191906000526020600020905b8154815290600101906020018083116121f557829003601f168201915b50505050508152602001600582015481525050915050919050565b600081600001549050919050565b6001816000016000828254019250508190555050565b6040518060c0016040528060008152602001600073ffffffffffffffffffffffffffffffffffffffff168152602001606081526020016060815260200160608152602001600081525090565b8280546122a9906130f2565b90600052602060002090601f0160209004810192826122cb5760008555612312565b82601f106122e457805160ff1916838001178555612312565b82800160010185558215612312579182015b828111156123115782518255916020019190600101906122f6565b5b50905061231f919061238e565b5090565b6040518060e0016040528060008152602001600073ffffffffffffffffffffffffffffffffffffffff168152602001600073ffffffffffffffffffffffffffffffffffffffff1681526020016000815260200160608152602001600081526020016000151581525090565b5b808211156123a757600081600090555060010161238f565b5090565b6000604051905090565b600080fd5b600080fd5b6000819050919050565b6123d2816123bf565b81146123dd57600080fd5b50565b6000813590506123ef816123c9565b92915050565b60006020828403121561240b5761240a6123b5565b5b6000612419848285016123e0565b91505092915050565b600073ffffffffffffffffffffffffffffffffffffffff82169050919050565b600061244d82612422565b9050919050565b61245d81612442565b811461246857600080fd5b50565b60008135905061247a81612454565b92915050565b600060208284031215612496576124956123b5565b5b60006124a48482850161246b565b91505092915050565b600081519050919050565b600082825260208201905092915050565b6000819050602082019050919050565b6124e2816123bf565b82525050565b6124f181612442565b82525050565b600081519050919050565b600082825260208201905092915050565b60005b83811015612531578082015181840152602081019050612516565b83811115612540576000848401525b50505050565b6000601f19601f8301169050919050565b6000612562826124f7565b61256c8185612502565b935061257c818560208601612513565b61258581612546565b840191505092915050565b600060c0830160008301516125a860008601826124d9565b5060208301516125bb60208601826124e8565b50604083015184820360408601526125d38282612557565b915050606083015184820360608601526125ed8282612557565b915050608083015184820360808601526126078282612557565b91505060a083015161261c60a08601826124d9565b508091505092915050565b60006126338383612590565b905092915050565b6000602082019050919050565b6000612653826124ad565b61265d81856124b8565b93508360208202850161266f856124c9565b8060005b858110156126ab578484038952815161268c8582612627565b94506126978361263b565b925060208a01995050600181019050612673565b50829750879550505050505092915050565b600060208201905081810360008301526126d78184612648565b905092915050565b600080fd5b600080fd5b7f4e487b7100000000000000000000000000000000000000000000000000000000600052604160045260246000fd5b61272182612546565b810181811067ffffffffffffffff821117156127405761273f6126e9565b5b80604052505050565b60006127536123ab565b905061275f8282612718565b919050565b600067ffffffffffffffff82111561277f5761277e6126e9565b5b61278882612546565b9050602081019050919050565b82818337600083830152505050565b60006127b76127b284612764565b612749565b9050828152602081018484840111156127d3576127d26126e4565b5b6127de848285612795565b509392505050565b600082601f8301126127fb576127fa6126df565b5b813561280b8482602086016127a4565b91505092915050565b60008060006060848603121561282d5761282c6123b5565b5b600084013567ffffffffffffffff81111561284b5761284a6123ba565b5b612857868287016127e6565b935050602084013567ffffffffffffffff811115612878576128776123ba565b5b612884868287016127e6565b925050604084013567ffffffffffffffff8111156128a5576128a46123ba565b5b6128b1868287016127e6565b9150509250925092565b6128c4816123bf565b82525050565b60006020820190506128df60008301846128bb565b92915050565b600081519050919050565b600082825260208201905092915050565b6000819050602082019050919050565b60008115159050919050565b61292681612911565b82525050565b600060e08301600083015161294460008601826124d9565b50602083015161295760208601826124e8565b50604083015161296a60408601826124e8565b50606083015161297d60608601826124d9565b50608083015184820360808601526129958282612557565b91505060a08301516129aa60a08601826124d9565b5060c08301516129bd60c086018261291d565b508091505092915050565b60006129d4838361292c565b905092915050565b6000602082019050919050565b60006129f4826128e5565b6129fe81856128f0565b935083602082028501612a1085612901565b8060005b85811015612a4c5784840389528151612a2d85826129c8565b9450612a38836129dc565b925060208a01995050600181019050612a14565b50829750879550505050505092915050565b60006020820190508181036000830152612a7881846129e9565b905092915050565b60008060408385031215612a9757612a966123b5565b5b6000612aa58582860161246b565b9250506020612ab68582860161246b565b9150509250929050565b600080600060608486031215612ad957612ad86123b5565b5b6000612ae7868287016123e0565b9350506020612af88682870161246b565b925050604084013567ffffffffffffffff811115612b1957612b186123ba565b5b612b25868287016127e6565b9150509250925092565b600060e083016000830151612b4760008601826124d9565b506020830151612b5a60208601826124e8565b506040830151612b6d60408601826124e8565b506060830151612b8060608601826124d9565b5060808301518482036080860152612b988282612557565b91505060a0830151612bad60a08601826124d9565b5060c0830151612bc060c086018261291d565b508091505092915050565b60006020820190508181036000830152612be58184612b2f565b905092915050565b600080600060608486031215612c0657612c056123b5565b5b6000612c148682870161246b565b9350506020612c258682870161246b565b9250506040612c36868287016123e0565b9150509250925092565b612c4981612911565b82525050565b6000602082019050612c646000830184612c40565b92915050565b60008060408385031215612c8157612c806123b5565b5b6000612c8f858286016123e0565b9250506020612ca08582860161246b565b9150509250929050565b600082825260208201905092915050565b6000612cc6826124f7565b612cd08185612caa565b9350612ce0818560208601612513565b612ce981612546565b840191505092915050565b60006020820190508181036000830152612d0e8184612cbb565b905092915050565b612d1f81612442565b82525050565b600060c082019050612d3a60008301896128bb565b612d476020830188612d16565b8181036040830152612d598187612cbb565b90508181036060830152612d6d8186612cbb565b90508181036080830152612d818185612cbb565b9050612d9060a08301846128bb565b979650505050505050565b60008060008060808587031215612db557612db46123b5565b5b6000612dc38782880161246b565b9450506020612dd4878288016123e0565b935050604085013567ffffffffffffffff811115612df557612df46123ba565b5b612e01878288016127e6565b9250506060612e12878288016123e0565b91505092959194509250565b600060e082019050612e33600083018a6128bb565b612e406020830189612d16565b612e4d6040830188612d16565b612e5a60608301876128bb565b8181036080830152612e6c8186612cbb565b9050612e7b60a08301856128bb565b612e8860c0830184612c40565b98975050505050505050565b600060c083016000830151612eac60008601826124d9565b506020830151612ebf60208601826124e8565b5060408301518482036040860152612ed78282612557565b91505060608301518482036060860152612ef18282612557565b91505060808301518482036080860152612f0b8282612557565b91505060a0830151612f2060a08601826124d9565b508091505092915050565b60006020820190508181036000830152612f458184612e94565b905092915050565b7f436f6e73656e743a20446f6573206e6f742065786973742e0000000000000000600082015250565b6000612f83601883612caa565b9150612f8e82612f4d565b602082019050919050565b60006020820190508181036000830152612fb281612f76565b9050919050565b7f436f6e73656e743a2043616c6c6572206973206e6f742074686520706174696560008201527f6e74000000000000000000000000000000000000000000000000000000000000602082015250565b6000613015602283612caa565b915061302082612fb9565b604082019050919050565b6000602082019050818103600083015261304481613008565b9050919050565b7f4e487b7100000000000000000000000000000000000000000000000000000000600052601160045260246000fd5b6000613085826123bf565b91507fffffffffffffffffffffffffffffffffffffffffffffffffffffffffffffffff8214156130b8576130b761304b565b5b600182019050919050565b7f4e487b7100000000000000000000000000000000000000000000000000000000600052602260045260246000fd5b6000600282049050600182168061310a57607f821691505b6020821081141561311e5761311d6130c3565b5b50919050565b7f4e487b7100000000000000000000000000000000000000000000000000000000600052603260045260246000fd5b6000604082019050818103600083015261316d8185612cbb565b905081810360208301526131818184612cbb565b90509392505050565b7f5265636f72643a20446f6573206e6f7420657869737400000000000000000000600082015250565b60006131c0601683612caa565b91506131cb8261318a565b602082019050919050565b600060208201905081810360008301526131ef816131b3565b9050919050565b7f4b657953686172653a2043616c6c6572206973206e6f74207265636f7264206f60008201527f776e657200000000000000000000000000000000000000000000000000000000602082015250565b6000613252602483612caa565b915061325d826131f6565b604082019050919050565b6000602082019050818103600083015261328181613245565b9050919050565b7f4b657953686172653a20496e76616c69642070726f766964657220616464726560008201527f7373000000000000000000000000000000000000000000000000000000000000602082015250565b60006132e4602283612caa565b91506132ef82613288565b604082019050919050565b60006020820190508181036000830152613313816132d7565b9050919050565b7f4b657953686172653a20486173682063616e6e6f7420626520656d7074790000600082015250565b6000613350601e83612caa565b915061335b8261331a565b602082019050919050565b6000602082019050818103600083015261337f81613343565b9050919050565b7f436f6e73656e743a20496e76616c69642070726f76696465722061646472657360008201527f7300000000000000000000000000000000000000000000000000000000000000602082015250565b60006133e2602183612caa565b91506133ed82613386565b604082019050919050565b60006020820190508181036000830152613411816133d5565b9050919050565b7f436f6e73656e743a20457870697279206d75737420626520696e20746865206660008201527f7574757265000000000000000000000000000000000000000000000000000000602082015250565b6000613474602583612caa565b915061347f82613418565b604082019050919050565b600060208201905081810360008301526134a381613467565b9050919050565b7f436f6e73656e743a2043616c6c657220646f6573206e6f74206f776e2072656360008201527f6f72640000000000000000000000000000000000000000000000000000000000602082015250565b6000613506602383612caa565b9150613511826134aa565b604082019050919050565b60006020820190508181036000830152613535816134f9565b9050919050565b600060408201905061355160008301856128bb565b61355e60208301846128bb565b939250505056fea26469706673582212207c9715374e8b6223a4c017f40c4f94b00e0940d2da06027fd5bf96e8bae9fafb64736f6c63430008090033",
  "linkReferences": {},
  "deployedLinkReferences": {}
}